:020000040800F2
:10000000400C002089010008F93E00085533000823
:100010008D3E0008E1020008C55000080000000005
:10002000000000000000000000000000D5480008AB
:10003000AD03000800000000D1480008ED490008A9
:10004000A3010008A3010008A3010008A301000800
:10005000A3010008A3010008A3010008A3010008F0
:10006000A3010008A3010008A3010008A3010008E0
:10007000A3010008A3010008E5020008F10200083E
:100080004903000855030008D5020008A301000831
:10009000A3010008A3010008A3010008A3010008B0
:1000A000F5490008194A00080D4A0008014A0008ED
:1000B000A3010008A3010008254A0008A3010008C5
:1000C000A3010008A3010008A3010008A301000880
:1000D000A3010008E94E0008E94F0008A301000849
:1000E000A3010008A3010008A301000800F002F822
:1000F00000F03AF80AA090E8000C82448344AAF188
:100100000107DA4501D100F02FF8AFF2090EBAE885
:100110000F0013F0010F18BFFB1A43F0010318473B
:10012000445D0000645D0000103A24BF78C878C1C7
:10013000FAD8520724BF30C830C144BF04680C60ED
:10014000704700000023002400250026103A28BF35
:1001500078C1FBD8520728BF30C148BF0B60704739
:100160001FB51FBD10B510BD00F07AF81146FFF79E
:10017000F7FF04F0F9FF00F098F803B4FFF7F2FF7F
:1001800003BC00F09FF80000094880470948004779
:10019000FEE7FEE7FEE7FEE7FEE7FEE7FEE7FEE737
:1001A000FEE7FEE704480549054A064B7047000094
:1001B000F1490008ED00000840060020400C002036
:1001C00040080020400800204FF000020429C0F041
:1001D000128010F0030C00F01B80CCF1040CBCF179
:1001E000020F18BF00F8012BA8BF20F8022BA1EBCB
:1001F0000C0100F00DB85FEAC17C24BF00F8012BB0
:1002000000F8012B48BF00F8012B70474FF00002A7
:1002100000B5134694469646203922BFA0E80C50FC
:10022000A0E80C50B1F12001BFF4F7AF090728BFD7
:10023000A0E80C5048BF0CC05DF804EB890028BF53
:1002400040F8042B08BF704748BF20F8022B11F07C
:10025000804F18BF00F8012B7047704770477047F8
:10026000754600F02BF8AE4605006946534620F06F
:100270000700854618B020B5FFF794FFBDE8204081
:100280004FF000064FF000074FF000084FF0000B52
:10029000AC46ACE8C009ACE8C009ACE8C009ACE8C1
:1002A000C00921F007018D46704710B50446AFF331
:1002B00000802046BDE81040FFF75FBF0048704750
:1002C0002000002001491820ABBEFEE726000200F6
:1002D0007047000040F2F400C2F2000000F072B972
:1002E000FEE7000040F26810C2F2000000F04ABBD6
:1002F00081B00020C4F20200006880041CD50020F8
:1003000040F2A8310090C2F200010A68136800931D
:1003100052680092009A40F2B802C2F200021070D5
:10032000202281F8412040F26811C2F2000101222E
:1003300081F8212081F8200040F26810C2F200000C
:1003400001B000F01FBB000040F2AC10C2F2000090
:1003500000F018BB81B00020C4F2020000688004E5
:100360001CD5002040F2F0310090C2F200010A6872
:100370001368009352680092009A40F2E002C2F2C1
:1003800000021070202281F8412040F2F011C2F2E8
:100390000001012281F8212081F8200040F2F010B4
:1003A000C2F2000001B000F0EDBA0000704700009A
:1003B0004EF21001CEF2000100EBC00048600120B7
:1003C00008600020886000BF086800F00110012864
:1003D0000ED1086800F00110012809D1086800F06A
:1003E0000110012804D1086800F001100128EBD0A9
:1003F000002008608860704740F2D020C2F2000000
:10040000006840F21832416AC2F2000240F2E4038E
:100410001268C2F200031980516A598000214162BA
:1004200051627047EFF3108072B600BFFEE7000024
:100430007047000010B581B00022009290F824208F
:10044000012A03D10221084601B010BD4B680122E8
:10045000062B80F8242017D8D0F800C003EB8303C4
:100460005A1F1F23DCF834E003FA02F40B682EEA6B
:10047000040403FA02F22243CCF83420092B03EBE4
:10048000430219D936E000BFD0F800C00C2B03EBB3
:1004900083021DD8233A1F23DCF830E003FA02F46C
:1004A0000B682EEA040403FA02F22243CCF830204F
:1004B000092B03EB43021DD8DCF8103007248968B0
:1004C0009440A34391401943CCF81010002130E030
:1004D000413A1F23DCF82CE003FA02F40B682EEA01
:1004E000040403FA02F22243CCF82C20092B03EB7C
:1004F0004302E1D9DCF80CE01E3A072489689440F5
:100500002EEA0404914023F001022143102ACCF882
:100510000C100DD142F20841C4F20101A1F1080210
:1005200094450DD0816A41F020018162012100E0F3
:100530000021002280F82420084601B010BD00BF31
:100540000A68120230D40A68102B42F400020A60D2
:100550002CD140F21801C2F2000109684DF6836205
:10056000C4F21B32A1FB0212910C01EB8101490084
:1005700000910099E1B10099013900910099C9B148
:100580000099013900910099B1B1009901390091A8
:10059000009999B1009901390091009900294FF013
:1005A0000001E8D1C5E700BF0021C2E70021C0E794
:1005B0000021BEE70021BCE70021BAE70021B8E72F
:1005C0007047000070B50446006805684668B106CB
:1005D00027D515F0020124D0A16AC90603D4A16A67
:1005E00041F40071A162816801F46021B1F5602FCE
:1005F00010D1217B71B9416821F020014160A06ACE
:1006000020F48070A062A06AC00403D4A06A40F005
:100610000100A0622046FFF7D3FF20686FF01201AF
:100620000160310633D515F0040130D0A16AC90646
:1006300003D4A16A41F40051A162816801F4E04150
:10064000B1F5E04F10D1416821F080014160A06A0E
:1006500020F48050A062A06AC00511D4A06A40F0C6
:100660000100A0620CE000BF4168490508D4816820
:1006700001F46021B1F5602F02D1217B0029E2D085
:100680002046FFF7D5FE20686FF00C010160700670
:100690000ED515F0010008BF70BDA06A40F480308F
:1006A000A062204600F0B4F820686FF001010160FC
:1006B00070BD0000B0B5002800F0A8800446806A34
:1006C00020B121688868C0070BD114E00020E062E7
:1006D00084F82400204600F09DF821688868C0074F
:1006E00009D0886820F00100886000F0DBFB2168F9
:1006F0008A68D20726D1A06AC0063AD4A06A41F21D
:10070000021290430230A062E069D4E9013240EA6B
:10071000030C531EB3FA83F35D091346B2F5807FD1
:1007200018BF2B02207D257B01284CEA450030D1E3
:1007300035B3A56A45F02005A562E56A45F00105D7
:10074000E56226E0054602E08868C007D3D000F0E5
:10075000A9FB401B21680328F6D38868C007F3D0A3
:10076000A06A40F01000A062E06A40F00100E06280
:10077000A06AA06A40F01000A0620120B0BD00BFD6
:10078000D4F818C04EF60005CFF6FF7505EB4C35D2
:100790002B434D68B2F5807F25F4694543EA050394
:1007A0004B608B684FF2FD75CFF6E17503EA0503E8
:1007B00043EA00038B6001D0012A07D1226900239C
:1007C000CFF6F07303EB025201E000BF0022CB6AC8
:1007D00023F470031A43CA62896840F6FE62CFF6BA
:1007E0001F721140814207D10020E062A16A0122FC
:1007F00062F30101A162B0BDA06A40F0100020F0D8
:100800000200A062E06A40F00100E0620120B0BD99
:100810007047000080B586B0014640F60000C4F283
:100820000100096800F5E05291424FF00001CDE966
:10083000041101D006B080BD41F21801C4F20201DA
:100840000A6842F400720A600A6802F400720192B7
:10085000019A0A6842F004020A60096801F0040182
:1008600001910199302102910321039102A900F025
:10087000FFF912200021002200F030FD122000F0CC
:1008800019FD06B080BD0000014690F82100022845
:1008900016D10868D1E90FC3026822F00E02026087
:1008A000026822F001020260012000FA03F2CCF893
:1008B000042081F821000020002281F820207047C8
:1008C000042088630120002281F820207047000066
:1008D00080B590F82110022924D10268116821F016
:1008E0000E0111602F211368C4F202018A4240F206
:1008F0000401C4F2020123F00103136016DD30236A
:10090000C4F202039A421DD04423C4F202039A4265
:100910001CD05823C4F202039A421DD14FF48033F5
:1009200022E000BF04218163012080BD0823C4F2BE
:1009300002039A420ED01C23C4F202039A420BD146
:10094000102311E04FF480730EE000BF4FF480538A
:100950000AE000BF012307E001F1680C4FF080734B
:10096000624508BF4FF480130B60012180F821100D
:10097000426B002180F820100AB190470021084600
:1009800080BD000010B5D0E90FCE0168DCF8003062
:100990000A6823FA0EF35C072AD512F0040427D064
:1009A0000A68920603D40A6822F004020A602F2221
:1009B000C4F20202914240F20402C4F202025BDD80
:1009C0003023C4F20203994272D04423C4F20203DA
:1009D000994273D05823C4F20203994240F07A80BE
:1009E0004FF480231360C16A002940F098806FE0C3
:1009F0009C0727D512F0020424D00A68920606D478
:100A00000A6822F00A020A60012280F821202F22BF
:100A1000C4F20202914240F20402C4F202023BDD3F
:100A20003023C4F20203994260D04423C4F202038B
:100A300099425FD05823C4F20203994260D14FF427
:100A4000003365E01B0743D512F0080208BF10BD54
:100A50000A6822F00E020A60012101FA0EF2CCF8B7
:100A60000420816380F82110016B0022002980F8A6
:100A7000202054D12CE000BF0823C4F20203994285
:100A800022D01C23C4F20203994223D140231360D5
:100A9000C16A002943D11BE00823C4F20203994232
:100AA0002CD01C23C4F20203994229D120232FE029
:100AB0004FF480631360C16A89BB09E04FF480433F
:100AC0001360C16A59BB03E004231360C16A31BBE0
:100AD00010BD00BF02F168044FF08063A14208BF5F
:100AE0004FF480031360C16AC9B9F1E74FF4007392
:100AF0000EE000BF4FF400530AE000BF022307E0FE
:100B000002F168044FF00073A14208BF4FF40013D4
:100B10001360816A0022002980F82020D8D0BDE827
:100B200010400847014600284FF0010008BF7047F9
:100B30002DE9F043D1F800C04FF6F873CBF6FD7302
:100B40004CF6CD426344CCF6CC42A3FB02236FF0BB
:100B5000030707EA93030027C4F2020701F10C0917
:100B6000C1E90F730223D1E9012E99E87002D1F88F
:100B70001C8081F82130DCF8003043F6F077BB436D
:100B80001A4342EA0E0222432A43324342EA09024E
:100B900042EA0802CCF8002000228A6381F8210092
:100BA00081F820200020BDE8F0437047F0B590F8B0
:100BB00020C0BCF1010F32D04FF0010E80F820E0D0
:100BC00090F821C0BCF1010F26D14FF0020C80F843
:100BD00021C04FF0000CC0F838C0D0E900C4C56A8D
:100BE000C66BDCF80070102C27F00107CCF8007001
:100BF000006C0EFA00F070600846CCF8043004BFB8
:100C000010460A46CCF80800CCF80C20DCF80000AE
:100C100045B140F00E000DE0002180F820100220C8
:100C2000F0BD00BF20F00400CCF80000DCF80000AC
:100C300040F00A00CCF80000DCF8000040F00100B1
:100C4000CCF800000020F0BDB0B5044600F02AF951
:100C5000054640F20000C2F200000078611C18BF97
:100C6000044400BF00F01EF9401BA042FAD3B0BDFF
:100C70002DE9F04F82B00E68002E00F0038141F2A2
:100C80000042C4F20102042340F2004E904208BF29
:100C900003234FF6FF7CC4F2010E009300240123CE
:100CA000C1F2100C4FF0000A4FF0000949E000BFFC
:100CB000012704F00C030F229A402BEA020207FAE4
:100CC00003F34FEA9A051A4346F82520D1F804B0F9
:100CD00040F20C455FEACB22DEF8082054BF22EA3E
:100CE000080242EA0802C4F20105CEF808202A6888
:100CF0005FEA8B2354BF22EA080242EA08022A6014
:100D00005FEA8B33DEF8042054BF22EA080242EA8D
:100D100008025FEACB33CEF80420DEF800204FF063
:100D2000010354BF22EA080242EA0802CEF800207A
:100D30000E680AF1010A36FA0AF204F1040400F01E
:100D4000A18003FA0AF816EA080FF1D04E6866454A
:100D500012DC122E56D8DFE806F0350B4549555502
:100D600055555555555555555555554D510000BF7F
:100D7000D1F80C9046E000BF4FF6FF72C1F221029D
:100D800096420FDC0022C1F2110296421AD00022D4
:100D9000C1F21202964215D00022C1F221029642FF
:100DA00010D02FE00022C1F2220296420AD0002287
:100DB000C1F23102964205D00022C1F232029642BF
:100DC00020D100BF8A684AB1012A14BFC0F814803C
:100DD000C0F810804FF0080914E000BF4FF004097C
:100DE00010E000BFCA6802F108090BE04FF00009EB
:100DF00008E000BFCA6802F1040903E0CA6802F112
:100E00000C0900BF22460646BAF1080F24BF203A5B
:100E1000043637680F25954027EA050509FA02F2DE
:100E20002A433260CA79D2067FF582AF41F21803B5
:100E3000C4F202031A68AEF57E7642F001021A602F
:100E40001A6802F001020192019A2AF0030256F890
:100E500002B040F60002C4F20102904210D040F607
:100E60000042C4F2010290423FF422AF41F200027C
:100E7000C4F20102009F904208BF022719E700BF99
:100E8000002716E702B0BDE8F08F00008068084038
:100E900018BF012070470000002A08BF0904016143
:100EA0007047000040F23860C2F2000000687047EE
:100EB00070B5B8B3044690F83D0028B9002084F816
:100EC0003C00204600F05CF9242084F83D002068B6
:100ED000016821F001010160016841F400410160F5
:100EE000016821F40041016000F09AFB48F2804162
:100EF000C0F21E0140F60013D4F804E088424FF01F
:100F00000001C0F23D0348F2A16C4FF0000238BF6F
:100F100001219842C0F2010C38BF0122E64538BFDA
:100F20000A460AB1012070BD4DF68361C4F21B313F
:100F3000A0FB01122168950C4B684FF4967623F0C4
:100F40003F0343EA9243754344F6D3564B60C1F2E4
:100F500062060B6AA5FB0656B50923F03F03E6457A
:100F600038BF950C6A1C1A430A62CA6948F2A06627
:100F70004CF6FF73C0F20106B64522EA03020BD815
:100F800001384FEA4E03B0FBF3F001306FF31F302E
:100F9000042898BF04201EE0A368013863B1192318
:100FA0000EFB03F3B0FBF3F001306FF31F3078B1A9
:100FB00000F5804008E000BF0EEB4E03B0FBF3F0FD
:100FC00001306FF31F3028B100F5004003E000BF8F
:100FD000012000E001201043C8610868D4E907231C
:100FE00020F0C000104318430860886848F2FF32C0
:100FF00004F10C0690434CCE18431043A569886059
:10100000C86820F0FF0030432843C860086840F0FB
:101010000100086000202021206484F83D10206336
:1010200084F83E0070BD00002DE9F04383B099467E
:1010300016460F460446FFF735FF94F83D10202969
:1010400020D10546206800BF8169890716D5FFF7C2
:1010500029FF411B20681A29F6D381698907F3D536
:1010600000202021206384F83D1084F83E00216C8C
:1010700041F02001216484F83C0003E094F83C1026
:10108000012903D1022003B0BDE8F083012284F8D6
:101090003C200368DDE90B180A9ADB0703D10368DB
:1010A00043F001030360036823F40063036021201D
:1010B00084F83D00402084F83E00002020646262F5
:1010C0006185608D394620850020CFF6FF70E06293
:1010D000204632464B46CDF80080019502F03CF99F
:1010E00020B1012003B0BDE8F08300BF208D98B986
:1010F000204641462A4602F093F988B3206C042822
:10110000EFD12068016841F400710160012003B053
:10111000BDE8F0830004EBD0204641462A4602F0A9
:1011200039FB0028EAD1616A2268084610F8013BC1
:101130001361238D6062581E2085678D013F67858E
:1011400057697F07E6D50704E4D048781061881C0A
:101150006062981E2085618D01396185DAE700BFE4
:101160002068016841F400710160202084F83D008E
:10117000002084F83E0084F83C0003B0BDE8F08312
:1011800010B586B045F200410068C4F200010022AB
:101190008842049202D006B010BD00BF41F218048C
:1011A000C4F20204206840F008002060206800F0CB
:1011B000080001900198C0200290122003900320A3
:1011C000059001F5384002A9FFF752FD606840F430
:1011D00000106060606800F400100190019806B093
:1011E00010BD000040F2000040F23861C2F2000081
:1011F000C2F2000100780A681044086070470000DD
:1012000080B542F20000C4F20200016841F0100112
:101210000160032000F08EF80F2000F005F800F0C8
:1012200027F8002080BD000070B540F20006C2F231
:10123000000640F218013278C2F200014FF47A73CE
:101240000968B3FBF2F20446B1FBF2F1084600F084
:10125000E9FB0F2C4FF0010508D838B94FF0FF30EB
:1012600021460022002500F039F87460284670BD40
:1012700082B041F21800C4F202000168022241F07B
:1012800001010160016801F00101019101994168CA
:1012900041F080514160406800F08050009000981B
:1012A0000420C4F20100016862F31A61016002B017
:1012B00070470000002848BF7047C1B200F01F000F
:1012C000012202FA00F04EF20012CEF2000242EACF
:1012D000D10121F0030108607047000010B54EF6FF
:1012E0000C5CCEF2000CDCF80030C3F3022E8EF062
:1012F0000704042C28BF0424BEF103034FF0FF3E73
:101300000EFA04F438BF0023A14399400EFA03F308
:101310009A43114300F00F0200F160430901043ABF
:1013200003F564436244002848BF02F10C031970BE
:1013300010BD00004EF60C51CEF200010A684FF6C7
:10134000FF031A4060F30A2242F0806040F0FD7013
:10135000086070472DE9F04182B00446007841F200
:101360001C06C007C4F202064AD0306810F080584C
:1013700008D1306840F080503060306800F0805014
:101380000190019847F20007C4F200073868C005D1
:1013900012D4386840F480703860FFF783FD05464A
:1013A0003868C00508D4FFF77DFD401B6428F7D9D5
:1013B000032002B0BDE8F081706810F4407012D0D4
:1013C000616801F4407188420DD0706840F240427B
:1013D000C4F24222012320F4407113600023C007AD
:1013E000136071602AD17068616820F4407008430E
:1013F000B8F1000F706003D1306820F08050306089
:101400002068810707D556F8181CA26821F44041CE
:10141000114346F8181CC00604D4002002B0BDE8F1
:10142000F08100BF56F8180CE16820F480000843F2
:1014300046F8180C002002B0BDE8F081FFF732FD3D
:10144000054641F2883700BF70688007CBD4FFF7AC
:1014500029FD401BB8424FF00300F5D9EBE700002F
:101460002DE9F04381B0002800F0858042F20008A9
:10147000C4F202080446D8F800000D4600F0070048
:1014800088420CD2D8F8000020F007002843C8F8A2
:101490000000D8F8000000F00700A8426BD12068D7
:1014A00041F204098107C4F2020917D5410705D5A5
:1014B000D9F8001041F4E061C9F80010010705D522
:1014C000D9F8001041F46051C9F80010D9F80010A3
:1014D000A26821F0F0011143C9F80010C00741D102
:1014E000D8F8000000F00700A8420CD9D8F8000096
:1014F00020F007002843C8F80000D8F8000000F0EA
:101500000700A84237D12068410707D5D9F8001055
:10151000E26821F4E0611143C9F80010000708D522
:10152000D9F80000216920F4605040EAC100C9F8F0
:101530000000D9F8002002F00C00082841F2002039
:10154000C0F27A0050D145F65263C2F38341C0F62F
:101550000003595CD2033BD440F60010C0F23D00BA
:10156000484341E0606802280AD001282AD159F88E
:10157000041C890308D4012001B0BDE8F08300BF3A
:1015800059F8041C8901F6D5D9F8001021F003019F
:101590000843C9F80000FFF785FC064641F288378A
:1015A000D9F80000616800F00C00B0EB810F97D013
:1015B000FFF778FC801BB842F2D9032001B0BDE8E8
:1015C000F08300BF59F8041C8907D4D5DCE700BFBD
:1015D000D9F8002045F65063C2F34042C0F600033C
:1015E0009A5C4843B0FBF2F0D9F8001045F226624D
:1015F000C1F30311C0F60002515C40F2180220FA58
:1016000001F140F20400C2F200000068C2F20002E0
:101610001160FFF709FE002001B0BDE8F083000073
:1016200040F2180041F20401C2F20000C4F20201CB
:101630000068096845F23662C1F30221C0F6000273
:10164000515CC8407047000040F2180041F20401AC
:10165000C2F20000C4F202010068096845F2366275
:10166000C1F3C221C0F60002515CC84070470000BF
:101670002DE9F04182B0002868D00446007841F29C
:101680000006C007C4F2020625D0706800F00C0006
:1016900004281BD0706800F00C00082802D1706884
:1016A000C00313D46068002800F06881B0F5A02F53
:1016B00000F07C81B0F5803F00F07C81306820F440
:1016C00080303060306820F4802076E1306880031C
:1016D00001D56068D0B32078800718D5706810F005
:1016E0000C0F07D0706800F00C0008286ED17068ED
:1016F000C0036BD43068800702D52069012825D14A
:101700003068616920F0F80040EAC100306020785C
:1017100000071FD42078400732D4E56995B170687E
:1017200000F00C00082840F08F80012D0ED070686A
:10173000216A00F480328A4208D1616A00F4701094
:10174000884203D1002002B0BDE8F081012002B040
:10175000BDE8F081A069002862D00020C4F24220D8
:101760000121C0F88014FFF79DFB0546706A8007D1
:1017700000F18C80FFF796FB401B0228F6D92AE186
:10178000F06910F0805808D1F06940F08050F061A5
:10179000F06900F080500090009847F20007C4F212
:1017A00000073868C00529D4386840F48070386074
:1017B000FFF778FB054600BF3868C0051ED4FFF769
:1017C00071FB401B6428F7D905E100BF20690028A0
:1017D00040F20000C4F2422000F08280012101604A
:1017E000FFF760FB054600BF306880073FF588AF14
:1017F000FFF758FB401B0228F6D9ECE0E068002810
:1018000000F08080052800F09780012800F0988083
:10181000306A20F001003062306A20F0040092E06B
:101820000020C4F242200021C0F88014FFF73AFBE8
:10183000054600BF706A80077FF56CAFFFF732FB8B
:10184000401B0228F6D9C6E00027C4F24227002038
:101850003866FFF727FB022D05460BD13068800163
:1018600040F1BE80FFF71EFB401B02284FF0030033
:10187000F4D968E7306880017FF564AFFFF712FBA9
:10188000401B02284FF00300F4D95CE740F2180037
:10189000C2F20000006844F6D351C1F26201A0FB1D
:1018A0000101480A019000BF00BF0198411E0028B5
:1018B00001913FF42FAF00BF0198411E0028019114
:1018C0003FF428AF00BF0198411E002801913FF46A
:1018D00021AF00BF0198411E00280191E4D119E712
:1018E00000210160FFF7DEFA054600BF306880077F
:1018F0007FF50DAFFFF7D6FA401B02284FF003002B
:10190000F4D920E7306A20F001003062306A20F01C
:1019100004003062FFF7C6FA054641F2883700BF7F
:10192000306A800720D5FFF7BDFA401BB8424FF060
:101930000300F5D907E700BF306A40F004003062C9
:10194000306A40F001003062FFF7ACFA054641F220
:10195000883700BF306A800706D4FFF7A3FA401B20
:10196000B842F7D937E000BFB8F1000F7FF4D5AE29
:10197000F06920F08050F061CFE600BF306820F4BD
:1019800080303060306820F480203060FFF78AFAC1
:10199000054600BF306880037FF59DAEFFF782FAF1
:1019A000401B64284FF00300F4D9CCE6306840F4C3
:1019B00080203060306840F480303060FFF772FA89
:1019C000054600BF306880033FF585AEFFF76AFA31
:1019D000401B6428F6D9032002B0BDE8F08100BFA7
:1019E000206AB0F5803F05D17168A26821F400310A
:1019F000114371607168626A21F4741111430843E4
:101A0000706001203866FFF74DFA044630688001A7
:101A10003FF598AEFFF746FA001B02284FF003008F
:101A2000F4D990E6411E0020B0EB116F1CBF0120DD
:101A300070474EF21002CEF2000251604EF6235172
:101A4000CEF20001F0230B70072190601160704707
:101A50007047000070470000B0B590F83C20012AA4
:101A600004BF0220B0BD01F108053CCDD1E900CE94
:101A700023F47C5322F470521A432EF4F0431A4399
:101A80002CF4E0431A4324F4C0431A432A43C9699F
:101A900022F48042036811435964002180F83C100D
:101AA0000846B0BD10B590F83C20012A4FF0020264
:101AB00033D080F83D200268D2F804E0D2F808C0A4
:101AC0000C682EF07003234340F2FF74C4F200044C
:101AD000A24253600ADCB2F1804F13D040F20043BF
:101AE000C4F200039A420DD011E000BF42F6004359
:101AF000C4F201039A4205D040F60003C4F2000389
:101B00009A4204D149682CF0800319439160012165
:101B1000002280F83D1080F83C20104610BD0000E7
:101B2000002804BF0120704710B5044690F83D001E
:101B300028B9002084F83C00204600F067F8022015
:101B400084F83D00206840F2FF730268C4F200038D
:101B500042F6004C9842C4F2010C15DCB0F1804F03
:101B60001AD040F20041C4F20001884214D09842D9
:101B700018DCB0F1804F1DD040F20041C4F20001EA
:101B8000884217D01AE000BF604505D040F600013A
:101B9000C4F200018842EAD1A16822F070020A432F
:101BA0009842E6DD604505D040F60001C4F2000130
:101BB000884203D1216922F440720A43A36922F0CA
:101BC0008001D4F804E0E268194360450160C26214
:101BD000C0F828E002D16169CCF8301001214161E0
:101BE000002084F8461084F83E1084F83F1084F8F2
:101BF000401084F8411084F8421084F8431084F8AF
:101C0000441084F8451084F83D1010BD10B582B022
:101C1000006840F60001C4F2000188422CD042F670
:101C20000041C4F20101884240D141F21800C4F2DF
:101C300002000168002241F4006101600068002197
:101C400000F40060019001981820FFF747FB18206E
:101C5000FFF730FB192000210022FFF73FFB19207E
:101C6000FFF728FB1A2000210022FFF737FB1A207C
:101C7000FFF720FB1B240DE041F21800C4F2020024
:101C800041681E2441F004014160406800F00400F6
:101C900000900098204600210022FFF71FFB2046FD
:101CA00002B0BDE81040FFF705BB00BF02B010BD99
:101CB00090F83D1001291CBF01207047022180F8D7
:101CC0003D10006840F2FF72C168C4F20002904209
:101CD00041F00101C16009DCB0F1804F12D040F247
:101CE0000041C4F2000188420CD012E042F60041EB
:101CF000C4F20101884205D040F60001C4F200019F
:101D0000884206D1816801F00701062904BF00203E
:101D10007047016841F00101016000207047000038
:101D200080B590F83C20012A4FF0020200F0C280FA
:101D300080F83D20D0F800C04FF67772DCF808300C
:101D400023EA0202CCF808200B684F2B28DC1F2B5B
:101D500044DD202B45D0302B43D0402B40F0AC80CD
:101D6000D1F804E0C968DCF82030DCF8202022F04B
:101D70000102CCF82020DCF8182022F0F00242EA20
:101D8000011123F00A0242EA0E02CCF81810CCF836
:101D90002020DCF8081041F0470121F0300180E0FC
:101DA0006F2B27DDB3F5005F48D0B3F5805F7AD0A5
:101DB000702B40F08180D1E901E3C968DCF808208C
:101DC00043EA0E0322F47F4243EA01211143CCF897
:101DD0000810DCF8081041F0770162E00BB1102B1D
:101DE0006AD1DCF8081021F07001194341F00701B5
:101DF00057E000BF502B35D0602B5DD1D1F804E007
:101E0000C968DCF82030DCF8202022F01002CCF881
:101E10002020DCF8182022F4704242EA013123F03D
:101E2000A00242EA0E12CCF81810CCF82020DCF800
:101E3000081041F0670121F0100132E0D1E901E31F
:101E4000C968DCF8082043EA0E0322F47F4243EA23
:101E500001211143CCF80810DCF8081041F480414E
:101E60001FE000BFD1F804E0C968DCF82030DCF8DE
:101E7000202022F00102CCF82020DCF8182022F0EB
:101E8000F00242EA011123F00A0242EA0E02CCF803
:101E90001810CCF82020DCF8081041F0570121F090
:101EA0002001CCF808100022012180F83D1000210B
:101EB00080F83C10104680BD0122F5E7002804BFE1
:101EC000012070472DE9F04F81B0044690F83D00A5
:101ED0000D4628B9002084F83C00204600F094F814
:101EE000022084F83D00206844F20702816840F235
:101EF000FF73914381600268C4F2000342F6004C14
:101F00009842C4F2010C15DCB0F1804F1AD040F2B7
:101F10000041C4F20001884214D0984218DCB0F1AC
:101F2000804F1DD040F20041C4F20001884217D01A
:101F30001AE000BF604505D040F60001C4F2000180
:101F40008842EAD1A16822F070020A439842E6DD95
:101F5000604505D040F60001C4F20001884203D17B
:101F6000216922F440720A43A36922F08001D4F867
:101F700004E0E268194360450160C262C0F828E0ED
:101F800002D16169CCF830104FF00109C0F814900B
:101F90008268D0F818E0D0F820C0D5E90038D5E93B
:101FA000027B43EA020AAB694FF6FF712EEA010E8B
:101FB00047EA03234FF6FC47BB43D5E907724BEAD8
:101FC0000E012E69194341EA072141EA061141EA4F
:101FD00002312CF022026B6942EA080242EA031243
:101FE000C0F808A08161026284F8469084F83E90AF
:101FF00084F83F9084F8429084F8439084F83D90B0
:10200000002001B0BDE8F08F80B586B0006840F2D6
:102010000041C4F2000188424FF00001CDE90411F3
:10202000CDE902111AD0B0F1804F39D141F2180038
:10203000C4F20200416841F001014160416801F0D1
:10204000010101910199016841F0040101600068FA
:1020500000F0040001900198032016E041F21800FE
:10206000C4F20200416841F002014160416801F0A0
:10207000020101910199016841F0040101600068C9
:1020800000F0040001900198C02002900020CDE9EA
:10209000030040F60000C4F2010002A9FEF7E8FDCB
:1020A00006B080BD80B590F83E2090F83F3090F8A3
:1020B00042E090F843C004290AD0B9B9012A4FF090
:1020C000010208BFBEF1010F34D0104680BD00BF31
:1020D000012B4FF0010208BFBCF1010FF5D1022125
:1020E00080F83F1080F8431000681EE0012A4FF08E
:1020F000010208BF012BE8D1BEF1010FE5D1BCF10F
:10210000010FE2D1022280F83E2080F83F2080F8C3
:10211000422080F8432091B10068016A21F001015A
:102120000162016A41F00101016210216FF01002A9
:1021300009E000BF022180F83E1080F842100068DC
:1021400001216FF00102036A1A400262026A114320
:1021500001620168002241F001010160104680BD6A
:102160007047000010B5016804460869800744BF45
:10217000C8685FEA807039D40869400744BFC868FE
:102180005FEA40703ED40869000744BFC8685FEA50
:10219000007045D40869C00644BFC8685FEAC060E3
:1021A0004AD40869C0071CBFC8685FEAC07051D133
:1021B0000869000644BFC8685FEA006052D4086935
:1021C000400644BFC8685FEA406053D4086980068F
:1021D00046BFC8685FEA806010BD6FF020022046ED
:1021E0000A61BDE81040FFF735BC00BF6FF0020088
:1021F0000861012020778869800743D02046FFF7D7
:10220000AFFF45E06FF00400086102202077886985
:1022100010F4407F40D02046FFF7A2FF42E000BF0D
:102220006FF00800086104202077C86980073DD05E
:102230002046FFF795FF3FE06FF01000086108208F
:102240002077C86910F4407F3AD02046FFF788FF16
:102250003CE000BF6FF001000861204600F02CFA5E
:102260002168A5E76FF0800008612046FFF7F0FBCA
:102270002168A4E76FF040000861204600F038FABA
:102280002168A3E7204600F025F8204600F0A2F9D7
:102290002168002020776FE7204600F01BF82046D9
:1022A00000F098F92168002020776CE7204600F0C4
:1022B00011F8204600F08EF921680020207769E7A8
:1022C000204600F007F8204600F084F9216800203D
:1022D000207766E7704700002DE9F04390F83C3026
:1022E000012B04BF0220BDE8F0834FEAB202032AAB
:1022F0003CD8DFE802F0034381BD00BF036842F62B
:1023000000461D6A1A6AC4F2010622F001021A622E
:102310001A465C6852F818CFB3428E68D1F800E0D4
:1023200025F0020545EA06050CD1CE68D1E905780D
:1023300024F4407425F00C0526F004063C43354394
:1023400044EA08042CF0730747EA0E075C609F61BB
:102350004F6809695F631D629F6947F008079F61C5
:102360009F6927F004079F61B2E000BF01210022AE
:1023700080F83C200846BDE8F08300BF036842F6C1
:1023800000461D6A1A6AC4F2010622F010021A629F
:102390001A46D3F804C052F8184FB3428E68D1F8E9
:1023A00000E025F0200545EA061510D1CE68D1E9F8
:1023B000058725F0C0096FF0400505EA06152CF4E5
:1023C000406647EA080745EA090546EA870C24F40F
:1023D000E64444EA0E27C3F804C09F614F680969C8
:1023E0009F631D629F6947F400679F619F6927F49F
:1023F00080679F616BE000BF036842F600461D6A7C
:102400001A6AC4F2010622F480721A621A46D3F8DC
:1024100004C052F81CEFB3428E680C6825F40075B6
:1024200045EA062511D1CE68D1E9058725F4406932
:10243000360240F2FF4526EA05052CF4405647EAED
:10244000080745EA090546EA071C2EF073072743EB
:10245000C3F804C0DF614F680969DF631D62DF698B
:1024600047F00807DF61DF6927F00407DF612FE02D
:10247000036842F60047D3F820C01A6AC4F2010785
:1024800022F480521A621A465C6852F81C5FD1F836
:1024900000E08E68BB4204D14F6924F4804444EAD2
:1024A00087142CF4005747EA063725F4E64646EA37
:1024B0000E265C60DE614E6809691E641F62DF697A
:1024C00047F40067DF61DF6927F48067DF61090295
:1024D0001368194311600021002280F83C2008464F
:1024E000BDE8F083002804BF0120704710B5044602
:1024F00090F83D0028B9002084F83C00204600F008
:1025000067F8022084F83D00206840F2FF730268FB
:10251000C4F2000342F6004C9842C4F2010C15DCF0
:10252000B0F1804F1AD040F20041C4F2000188425D
:1025300014D0984218DCB0F1804F1DD040F2004119
:10254000C4F20001884217D01AE000BF604505D0F0
:1025500040F60001C4F200018842EAD1A16822F0ED
:1025600070020A439842E6DD604505D040F600015E
:10257000C4F20001884203D1216922F440720A4367
:10258000A36922F08001D4F804E0E26819436045B1
:102590000160C262C0F828E002D16169CCF8301055
:1025A00001214161002084F8461084F83E1084F82F
:1025B0003F1084F8401084F8411084F8421084F8E9
:1025C000431084F8441084F8451084F83D1010BD81
:1025D000704700007047000041B1082910D004295D
:1025E00014BF00F1410200F13F020BE090F83E20E1
:1025F000012A1CBF01207047022280F83E2013E010
:1026000000F140021278012A1CBF0120704702220B
:10261000082907D0042914BF80F8412080F83F2002
:1026200002E000BF80F84020006801F01F01012295
:10263000036A8A4023EA02010162036A42F64441C6
:10264000C4F201011A43A1F14403984202620FD07F
:1026500040F2FF71C4F20001884213DCB0F1804FF8
:102660001CD040F20041C4F20001884216D01CE0A8
:102670000A6842F400420A6040F2FF71C4F20001AD
:102680008842EBDD42F60041C4F20101884205D0E8
:1026900040F60001C4F20001884206D1816801F0D1
:1026A0000701062904BF00207047016841F00101BD
:1026B000016000207047000040F26031C2F200016A
:1026C000884218BF704780B540F2E400C2F20000B3
:1026D000FDF792FE40F2A800C2F20000D0E900121D
:1026E000013142F10002C0E90012BDE880407047AC
:1026F000704700007047000010B50446006841694B
:1027000094F84120212A56D111F0800153D000BF06
:10271000206850E8050F216820F0800041E805029C
:10272000DAB1206850E8050F216820F0800041E808
:10273000050292B1206850E8050F216820F0800062
:1027400041E805024AB1206850E8050F216820F0F1
:10275000800041E80502002ADAD1A06B002818BFEA
:10276000FEF792F8206850E8030F216820F0C000BF
:1027700041E80302DAB1206850E8030F216820F035
:10278000C00041E8030292B1206850E8030F2168BD
:1027900020F0C00041E803024AB1206850E8030F6E
:1027A000216820F0C00041E80302002ADAD120208D
:1027B00084F841002068406994F84210222940F0D2
:1027C000A78010F0400000F0A38000BF206850E810
:1027D000050F216820F0400041E80502DAB12068C9
:1027E00050E8050F216820F0400041E8050292B151
:1027F000206850E8050F216820F0400041E80502FC
:102800004AB1206850E8050F216820F0400041E8F7
:102810000502002ADAD1E06B002818BFFEF734F871
:10282000206850E8030F216820F4907041E803020B
:10283000BAB3206850E8030F216820F4907041E893
:10284000030272B3206850E8030F216820F49070EF
:1028500041E803022AB3206850E8030F216820F4FE
:10286000907041E80302002ADAD11AE0206850E8AB
:10287000050F216820F0010041E80502DAB1206867
:1028800050E8050F216820F0010041E8050292B1EF
:10289000206850E8050F216820F0010041E805029A
:1028A0004AB1206850E8050F216820F0010041E896
:1028B0000502002ADAD1206B012824D1206850E8D3
:1028C000030F216820F0100041E80302DAB120680C
:1028D00050E8030F216820F0100041E8030292B194
:1028E000206850E8030F216820F0100041E803023F
:1028F0004AB1206850E8030F216820F0100041E839
:102900000302002ADAD1202084F84200002020634C
:10291000002010BD70470000B0B582B004460068CA
:102920000168C368426901F02F05202D03F02005DE
:1029300006D12DB1204602B0BDE8B04002F054BA35
:102940005FEA017C1EBF02F0010E03F4907212EBED
:102950000E0253D1226B012A05D111F0100218BFCB
:1029600013F0100236D10A0622D513F080021FD0D0
:1029700094F8411021293FD1A168B1F5805F03D1BE
:102980002169002900F07082216A4A1C22620978BC
:102990004160E18C01390A04E1842DD1C16821F044
:1029A0008001C160C16841F04001C16002B0B0BDAA
:1029B000490621D513F040011ED0C16821F0400125
:1029C000C1602021204684F8411002B0BDE8B0402B
:1029D00000F0BCBC002101910168019141680191A6
:1029E00001994069400613D4A08DE18DE28D002A43
:1029F00018BF884240F0BA8102B0B0BDCA0718BF04
:102A000013F4807240F0B6804A0700F1B980BEE04E
:102A1000E06B016849688AB2002AEDD0A38D9A4222
:102A2000EAD2E1858069202800F09C80206850E887
:102A3000030F216820F4807041E80302DAB12068B6
:102A400050E8030F216820F4807041E8030292B13E
:102A5000206850E8030F216820F4807041E80302E9
:102A60004AB1206850E8030F216820F4807041E8E3
:102A70000302002ADAD1206850E8050F216820F00F
:102A8000010041E80502DAB1206850E8050F21682D
:102A900020F0010041E8050292B1206850E8050FDE
:102AA000216820F0010041E805024AB1206850E8A1
:102AB000050F216820F0010041E80502002ADAD163
:102AC000206850E8050F216820F0400041E8050229
:102AD000DAB1206850E8050F216820F0400041E895
:102AE000050292B1206850E8050F216820F04000EF
:102AF00041E805024AB1206850E8050F216820F03E
:102B0000400041E80502002ADAD1202084F8420082
:102B100000202063206850E8030F216820F0100097
:102B200041E80302DAB1206850E8030F216820F081
:102B3000100041E8030292B1206850E8030F2168B9
:102B400020F0100041E803024AB1206850E8030F6A
:102B5000216820F0100041E80302002ADAD1E06B7E
:102B6000FDF792FE02206063A08DE18D401A81B2D4
:102B7000204674E1626C42F0010262644A0706D5A5
:102B8000BEF1000F03D0626C42F0020262648A0759
:102B900006D5BEF1000F03D0626C42F004026264FD
:102BA000BCF1000F09D545EA0E02B2FA82F25209D1
:102BB00003D1626C42F008026264626C002A3FF446
:102BC0001BAF11F0200118BF002D03D0204602F0EA
:102BD0000BF920684069616C00F0400001F00801C9
:102BE000401800F0B58000BF206850E8030F21684E
:102BF00020F4907041E80302BAB3206850E8030F54
:102C0000216820F4907041E8030272B3206850E814
:102C1000030F216820F4907041E803022AB3206872
:102C200050E8030F216820F4907041E80302002A65
:102C3000DAD11AE0206850E8050F216820F0010081
:102C400041E80502DAB1206850E8050F216820F05C
:102C5000010041E8050292B1206850E8050F2168A3
:102C600020F0010041E805024AB1206850E8050F54
:102C7000216820F0010041E80502002ADAD1206B2A
:102C8000012824D1206850E8030F216820F01000AB
:102C900041E80302DAB1206850E8030F216820F010
:102CA000100041E8030292B1206850E8030F216848
:102CB00020F0100041E803024AB1206850E8030FF9
:102CC000216820F0100041E80302002ADAD1202018
:102CD00084F84200002020632068406940063FD508
:102CE000206850E8050F216820F0400041E8050207
:102CF000DAB1206850E8050F216820F0400041E873
:102D0000050292B1206850E8050F216820F04000CC
:102D100041E805024AB1206850E8050F216820F01B
:102D2000400041E80502002ADAD1E06BC0B144F668
:102D30003121C0F600014163FDF7CAFD00283FF4D0
:102D40005BAEE06B416B02B0BDE8B040084700BF2E
:102D50002046FFF7DFFD0020606402B0B0BD00BF79
:102D6000204602B0BDE8B040FFF7D4BD401A21684C
:102D700051E8031F226821F4907142E80313DBB18C
:102D8000216851E8031F226821F4907142E803137F
:102D900093B1216851E8031F226821F4907142E841
:102DA00003134BB1216851E8031F226821F490718D
:102DB00042E80313002BDAD1216851E8051F22688D
:102DC00021F0010142E80513DBB1216851E8051F3C
:102DD000226821F0010142E8051393B1216851E80E
:102DE000051F226821F0010142E805134BB121685B
:102DF00051E8051F226821F0010142E80513002B6C
:102E0000DAD1202184F8421000212163216851E8A1
:102E1000031F226821F0100142E80313DBB121688F
:102E200051E8031F226821F0100142E8031393B117
:102E3000216851E8031F226821F0100142E80313C2
:102E40004BB1216851E8031F226821F0100142E8CC
:102E50000313002BDAD1022281B22046626302B052
:102E6000BDE8B040FFF746BC216A31F8022B6FF392
:102E70005F22426021628CE5002804BF0120704778
:102E800010B5044690F8410028B9002084F84000AD
:102E9000204600F063F8242084F841002068D4E93B
:102EA0000212C36823F40053C360036923F4405340
:102EB0001A430261D4E904231143C268194341F261
:102EC0000C639A431143C1604169A26921F44071C6
:102ED000114343F60002C4F201029042416103D063
:102EE000FEF79EFB02E000BFFEF7AEFB6268192111
:102EF00048439100B0FBF1F048F21F51C5F2EB11CD
:102F0000A0FB01235A094FF69C73C0F6FF7302FB26
:102F10000300322303EB0010A0FB0101F02303EABE
:102F20005113206803EB0212C1F343111144816075
:102F3000016921F490410161416921F02A01416157
:102F4000C16841F40051C16000202021606484F810
:102F5000411084F84210606310BD00002DE9F0417B
:102F600086B00446006844F20041C4F20001002724
:102F700088420597CDE90377029769D043F60001AF
:102F8000C4F20101884240F0CC8041F21800C4F242
:102F90000200016840F6000541F4804101600168CB
:102FA000C4F2010501F4804101910199016802AE6A
:102FB00041F004010160006840F2440800F00400A0
:102FC000019001984FF400700290022003900320BA
:102FD000059028463146C4F20208FDF749FE4FF439
:102FE00080600290002728463146CDE90377FDF73F
:102FF0003FFE40F2241508F11400C2F200058026BD
:10300000C5E900072846C5E90276C5E90477C5E9A0
:103010000677FDF787FD002818BFFDF703FAE56383
:103020006C6240F26815C2F200051020C5E900800C
:103030002846C5E90276C5E90477C5E90677FDF7B4
:1030400071FD00284FF0250618BFFDF7EBF95EE093
:1030500041F21800C4F20200416840F6000541F454
:10306000003141604168C4F2010501F40031019171
:103070000199016802AE41F004010160006840F26C
:10308000440800F0040001900198042002900220FE
:1030900003900320059028463146C4F20208FDF74C
:1030A000E7FD0820CDE90207284631460497FDF7E1
:1030B000DFFD40F2AC1508F12800C2F200058026C1
:1030C000C5E900072846C5E90276C5E90477C5E9E0
:1030D0000677FDF727FD002818BFFDF7A3F9E56384
:1030E0006C6240F2F01508F13C00C2F200051021BC
:1030F000002285E847002846C5E90422C5E90622E2
:10310000FDF710FD4FF0260608B1FDF78BF93046AC
:1031100000210022A5636C62FEF7E0F83046FEF75E
:10312000C9F806B0BDE8F08170B582B0044690F8E9
:10313000420020280AD113460A4600294FF0010018
:1031400018BF002B06D102B070BD00BF022002B034
:1031500070BD00BF002522202563A262A38565649F
:1031600084F842002168E06B44F6B93C44F6195EED
:1031700044F63D26C0F6000CC0F6000EC0F6000670
:103180000431C0E90ACEC0E90C65FDF70FFD0195D9
:10319000206801680191406801900198206928B376
:1031A000206850E8030F216840F4807041E8030272
:1031B000E2B1206850E8030F216840F4807041E8D4
:1031C00003029AB1206850E8030F216840F4807030
:1031D00041E8030252B1206850E8030F216840F42F
:1031E000807041E80302002ADAD100BF206850E86D
:1031F000050F216840F0010041E80502E2B12068B6
:1032000050E8050F216840F0010041E805029AB13D
:10321000206850E8050F216840F0010041E80502F0
:1032200052B1206850E8050F216840F0010041E8E4
:103230000502002ADAD100BF206850E8050F216896
:1032400040F0400041E80502DAB1206850E8050F7F
:10325000216840F0400041E8050292B1206850E842
:10326000050F216840F0400041E805024AB120689E
:1032700050E8050F216840F0400041E80502002AAF
:10328000DAD1002002B070BD704700007047000026
:1032900070B5044690F8410020281CBF022070BD84
:1032A00000294FF001004DD0002A134608BF70BD21
:1032B0004FF0000C21202162A384E384C4F844C0B1
:1032C00084F841002268A06B44F6315E44F6E15573
:1032D00044F63D26C0F6000EC0F60005C0F6000616
:1032E0000432C0E90AE5C0E90C6CFDF75FFC206818
:1032F0006FF04001016000BF206850E8050F2168B1
:1033000040F0800041E80502F2B1206850E8050F66
:10331000216840F0800041E80502AAB1206850E829
:10332000050F216840F0800041E8050262B1206885
:1033300050E8050F216840F0800041E80502002AAE
:10334000DAD1002070BD00BF002070BD70470000C2
:1033500070470000FEE700002DE9F04383B004460B
:1033600000680D4601680A9F0B9E41F480719946E2
:103370009046016020464FF0011100223B46009626
:1033800000F0AEF850B120680068C00544BF4FF4AB
:1033900000702064032003B0BDE8F083206805F0CE
:1033A000FE0101610221C0F2010120463A46334686
:1033B00000F080F920B1012003B0BDE8F08300BF28
:1033C00000200290206832464169029180693946A6
:1033D00002900298204600F0DDF958B1206C0428D4
:1033E000E9D12068016841F400710160012003B057
:1033F000BDE8F0832068B9F1010F0AD04FEA182127
:10340000016120463946324600F0C4F90028E5D172
:1034100020685FFA88F10161002003B0BDE8F08305
:1034200070B50368044653F8140F400711D40E46D4
:10343000481C29D086BB00BF1868400527D4FDF77B
:1034400031FD236853F8140F400739D51868400739
:10345000F2D5002070BD00BF18684007F9D4186885
:10346000400514D418684007F3D4186840050ED4FA
:1034700018684007EDD41868400508D4186840075C
:103480004FF0000048BF70BD18684005E4D56FF4E8
:1034900080601860042014E0154603E053F8140F10
:1034A0004007D6D418684005F1D4FDF7FBFC401B5B
:1034B0002368B042F2D958694007EFD4202000E0D9
:1034C000202000212022216384F83D2084F83E1032
:1034D000226C10432064012084F83C1070BD000071
:1034E0002DE9F041054600681E46144601F47F02AE
:1034F00001338FB242D0DDF81880B2F5803F40F042
:10350000878040693840C01BB0FA80F04009A04273
:1035100040F0C8804EB924E040693840C01BB0FA82
:1035200080F04009A04240F0BD80FDF7BBFCA0EB5D
:1035300008012868B142EFD941693940C91BB1FA85
:1035400081F14909A142E7D19BE000BF40693840C1
:10355000C01BB0FA80F04009A0424FF0000040F0DC
:10356000A680FDF79FFC286841693940C91BB1FA64
:1035700081F14909A142E9D183E000BFB2F5803F62
:1035800024D100BF41693940C91BB1FA81F1490911
:10359000A14240F0878041693940C91BB1FA81F1ED
:1035A0004909A14240F07E8041693940C91BB1FA06
:1035B00081F14909A14275D141693940C91BB1FA6C
:1035C00081F14909A142DDD06CE000BF8169394039
:1035D000C91BB1FA81F14909A14263D1816939401E
:1035E000C91BB1FA81F14909A1425BD18169394016
:1035F000C91BB1FA81F14909A14253D1816939400E
:10360000C91BB1FA81F14909A142DFD04AE000BFEC
:1036100080693840C01BB0FA80F04009A04241D117
:1036200046B923E080693840C01BB0FA80F04009F9
:10363000A0423BD1FDF736FCA0EB08012868B1425F
:10364000F0D981693940C91BB1FA81F14909A14218
:10365000E8D116E080693840C01BB0FA80F040091C
:10366000A0424FF0000018BFBDE8F081FDF71AFC42
:10367000286881693940C91BB1FA81F14909A14221
:10368000E8D100202021286385F83D1085F83E0010
:10369000296C41F02001296485F83C000120BDE837
:1036A000F08100BF0020BDE8F08100BF0020BDE830
:1036B000F0810000F0B581B0044600681D46436902
:1036C0008FB203EA0701B94202D1002001B0F0BD78
:1036D00041691646013201F4806125D0002940D1AC
:1036E000CEB100BFFDF7DEFB411B2068B14203D91C
:1036F00041693940B9424BD141693940B942E4D0BE
:1037000041694905EED52CE041693940B942DCD028
:103710004169490525D4FDF7C5FB20684169394059
:10372000B942F1D0202024E0D9B941693940B942E9
:10373000CBD04169490514D441693940B942C4D05C
:10374000416949050DD441693940B942BDD041694B
:10375000490506D441693940B942B6D041694905A5
:10376000E3D5016841F4007101606FF4806141614B
:10377000042000212022216384F83D2084F83E109B
:10378000226C1043206484F83C10012001B0F0BD8D
:103790002020EEE770B50368044653F8140F0006C6
:1037A00011D40E46481C29D086BB00BF18684005BE
:1037B00027D4FDF777FB236853F8140F000639D59B
:1037C00018680006F2D5002070BD00BF186800061A
:1037D000F9D41868400514D418680006F3D41868A2
:1037E00040050ED418680006EDD41868400508D4CA
:1037F000186800064FF0000048BF70BD186840050B
:10380000E4D56FF480601860042014E0154603E0EE
:1038100053F8140F0006D6D418684005F1D4FDF70C
:1038200041FB401B2368B042F2D958690006EFD42F
:10383000202000E0202000212022216384F83D2068
:1038400084F83E10226C10432064012084F83C1060
:1038500070BD0000B0B584B040F2F40042F2004107
:10386000C2F20000C4F2010100244FF460220125DD
:1038700004730475C261C0E9001484600561FCF73B
:1038800019FF002818BFFCF7CDFD0420CDE9010584
:1038900040F2F400C2F2000001A90394FCF7CAFD53
:1038A000002818BFFCF7BEFD04B0B0BD80B582B0E3
:1038B00041F21400C4F202000168002241F001014B
:1038C00001600068002100F00100019001980E20C5
:1038D000FDF704FD0E20FDF7EDFC0F200021002276
:1038E000FDF7FCFC0F20FDF7E5FC10200021002275
:1038F000FDF7F4FC1020FDF7DDFC11200021002273
:10390000FDF7ECFC112002B0BDE88040FDF7D2BC11
:103910002DE9F04F85B041F21800C4F202000168B1
:1039200040F6004941F0100101600168C4F201094C
:1039300001F0100101910199016809F5806741F0DA
:10394000200101600168002201F02001019101992C
:1039500001684FF4005641F00401016001684FF026
:10396000000801F0040101910199016841F008018A
:10397000016000684FF4005100F0080001900198C8
:103980003846FDF789FA484640F63A4101220124BB
:10399000FDF782FA48464FF4704100224FF4704A16
:1039A000FDF77AFAA9F5806528464FF48051012287
:1039B000FDF772FACDE9016401AE4FF0020B384613
:1039C0003146CDF80C80CDF810B0FDF751F94846DE
:1039D0003146CDE901480394FDF74AF940F63A40F3
:1039E000CDE9010448463146CDE9034BFDF740F9E6
:1039F00048463146CDE901A4CDE9038BFDF738F9FE
:103A00004FF4805001A981E8110828463146CDF8CD
:103A100010B0FDF72DF94FF40040CDE9010828461C
:103A200031460394FDF724F905B0BDE8F08F00009E
:103A300080B540F2342045F20041C2F20000C4F2E9
:103A4000000148F2A06200234FF4804CC0F2010252
:103A500080E80E00C0E9033CC0E90533C0E9073344
:103A6000FDF726FA002808BF80BDBDE88040FCF7BE
:103A7000D9BC000070B59CB040F60004C4F201044B
:103A800040F28820002104F51052C2F2000040F2FA
:103A9000CF2363261691CDE914111191CDE90F11B1
:103AA000CDE90D11CDE90B11CDE90911CDE90711D2
:103AB000CDE90511CDE90311CDE90111C0E90023DC
:103AC000C0E90216C0E904118161FEF729F8002857
:103AD00018BFFCF7A7FC4FF48050139040F28820E9
:103AE000C2F2000013A9FEF71BF9002818BFFCF76B
:103AF00099FC40F28820C2F20000FEF7F3FC002897
:103B000018BFFCF78FFC40F288200025C2F20000AD
:103B100010A9CDE91055FDF7C5FF002818BFFCF727
:103B200081FC6020CDE9090540F28820C2F2000046
:103B300009A90022CDE90B55CDE90D550F95FEF7EA
:103B4000CBFB002818BFFCF76DFC40F28820C2F2C6
:103B5000000009A90C22FEF7BFFB002818BFFCF7E4
:103B600061FC40F288254FF40050C2F200050026A7
:103B7000069001A928460596CDE90366CDE90166C0
:103B80000896FDF769FF002818BFFCF74BFC286872
:103B900040F60001C4F2000188421A9616D042F69F
:103BA0000041C4F20101884229D141F21800C4F257
:103BB0000200016841F004010160006800F00400A7
:103BC000179017984FF4106011E000BF41F21800F1
:103BD000C4F20200016804F5806441F0080101604C
:103BE000006800F00800179017984FF44070189084
:103BF000022019901B9018A92046FDF739F81CB037
:103C000070BD000080B58CB040F2D0200021C2F21F
:103C100000004FF080424FF6FF73C0E900210122FF
:103C2000CDE90011C0E9021301618161CDE90321F1
:103C3000CDE90521CDE90711CDE909210B9103A9B2
:103C4000FEF73CF9002818BFFCF7ECFB40F2D0204F
:103C5000C2F200006946FDF725FF002818BFFCF7F7
:103C6000E1FB0CB080BD000080B58CB040F2183094
:103C700040F200420021C2F20000C4F200024FF6FE
:103C8000FF73C0E900210122CDE90011C0E9021350
:103C900001618161CDE90321CDE90521CDE907115C
:103CA000CDE909210B9103A9FEF708F9002818BFF7
:103CB000FCF7B8FB40F21830C2F200006946FDF78D
:103CC000F1FE002818BFFCF7ADFB0CB080BD000072
:103CD000B0B594B040F6000540F26030C4F2000583
:103CE0000021C2F2000040F2CF2242F20F730E9187
:103CF000CDE90C110991CDE90711CDE90511CDE907
:103D00000311CDE90111C0E90052C0E902130161BC
:103D10008161FDF705FF002818BFFCF783FB4FF416
:103D200080500B9040F26030C2F200000BA9FDF70A
:103D3000F7FF002818BFFCF775FB40F26030C2F2B5
:103D40000000FEF7CFFB002818BFFCF76BFB40F22A
:103D500060300024C2F2000008A9CDE90844FDF754
:103D6000A1FE002818BFFCF75DFB6020CDE901042F
:103D700040F26030C2F2000001A9082203940594C9
:103D8000FEF7AAFA002818BFFCF74CFB40F260349B
:103D9000C2F2000401A920460C22FEF79DFA002879
:103DA00018BFFCF73FFB20680021A842129117D0F2
:103DB00042F60041C4F20101884229D141F21800C3
:103DC000C4F20200016841F00401016000684FF490
:103DD000106100F004000F900F9805F5803010E09E
:103DE00041F21800C4F20200016841F008010160CC
:103DF00000684FF4407100F008000F900F9805F52F
:103E00008230109102211191139110A9FCF730FF1B
:103E100014B0B0BD80B540F2A83043F60001C2F244
:103E20000000C4F2010100234FF00C0C4FF4E1320A
:103E300080E80E00C0E90333C0E905C3C361FFF7A2
:103E40001BF8002808BF80BDBDE88040FCF7EABA37
:103E500080B540F2F03044F20041C2F20000C4F2FA
:103E6000000100234FF00C0C4FF4E13280E80E000B
:103E7000C0E90333C0E905C3C361FEF7FDFF0028B5
:103E800008BF80BDBDE88040FCF7CCBAFEE700006B
:103E900010B540F28824C2F200042046FDF708FF66
:103EA00020460021FEF798FB20460C21FEF794FBEC
:103EB00040F2D020C2F200003C21FEF7F3F840F2BD
:103EC0001830C2F200003C21FEF7ECF840F26030FE
:103ED000C2F20000BDE81040FDF7EABE80B56420E4
:103EE00001F0F2F8642001F017F94FF47A70BDE8A0
:103EF0008040FCF7A9BE0000FEE700002DE9F04F6E
:103F000085B040F2342400254FF480760127C2F2B8
:103F100000040DF1120B0DF113084FF0000900BF62
:103F200009F1B0008DF8100004A8CDE90007204683
:103F30007821002201230296FDF776F810208DF8F3
:103F400011000DF11100CDE9000720467821002273
:103F500001230296FDF768F820467821002201230C
:103F60008DF81250CDE900B70296FDF75DF84FF0DD
:103F7000000A00BF20467821402201238DF813500B
:103F8000CDE900870296FDF74FF80AF101004FFADC
:103F900080FABAF1FF3FEDDCB9F1070F09F1010931
:103FA000BED305B0BDE8F08F2DE9F04184B040F2FA
:103FB0003424AE20C2F200048DF80F004FF4807557
:103FC00001260DF10F072046782100220123CDE9BB
:103FD000007602954FF00008FDF726F8204678217C
:103FE000002201238DF80F80CDE900760295FDF7C0
:103FF0001BF810208DF80F002046782100220123A5
:10400000CDE900760295FDF70FF840208DF80F00FE
:104010002046782100220123CDE900760295FDF7A4
:1040200003F8B0208DF80F002046782100220123EC
:10403000CDE900760295FCF7F7FF81208DF80F009F
:104040002046782100220123CDE900760295FCF775
:10405000EBFFFF208DF80F0020467821002201237E
:10406000CDE900760295FCF7DFFFA1208DF80F0067
:104070002046782100220123CDE900760295FCF745
:10408000D3FFC8208DF80F0020467821002201239D
:10409000CDE900760295FCF7C7FFA6208DF80F004A
:1040A0002046782100220123CDE900760295FCF715
:1040B000BBFFA8208DF80F002046782100220123A5
:1040C000CDE900760295FCF7AFFF3F208DF80F0099
:1040D0002046782100220123CDE900760295FCF7E5
:1040E000A3FFD3208DF80F00204678210022012362
:1040F000CDE900760295FCF797FF20467821002253
:1041000001238DF80F80CDE900760295FCF78CFF36
:10411000D5208DF80F002046782100220123CDE91B
:1041200000760295FCF780FF80208DF80F00204676
:10413000782100220123CDE900760295FCF774FF77
:10414000D8208DF80F002046782100220123CDE9E8
:1041500000760295FCF768FF05208DF80F002046D9
:10416000782100220123CDE900760295FCF75CFF5F
:10417000D9208DF80F002046782100220123CDE9B7
:1041800000760295FCF750FFF1208DF80F002046D5
:10419000782100220123CDE900760295FCF744FF47
:1041A000DA208DF80F002046782100220123CDE986
:1041B00000760295FCF738FF12208DF80F0020469C
:1041C000782100220123CDE900760295FCF72CFF2F
:1041D000DB208DF80F002046782100220123CDE955
:1041E00000760295FCF720FF30208DF80F00204666
:1041F000782100220123CDE900760295FCF714FF17
:104200008D208DF80F002046782100220123CDE972
:1042100000760295FCF708FF14208DF80F00204669
:10422000782100220123CDE900760295FCF7FCFEFF
:10423000AF208DF80F002046782100220123CDE920
:1042400000760295FCF7F0FEFFF758FE04B0BDE8DB
:10425000F08100002DE9F04F87B00646062BA2F151
:10426000200B00F03781102BA1F15000059140F098
:10427000C38140F23425C2F200058DF81B004FF4D3
:10428000807901270DF11B042846782100220123A3
:10429000CDE90047CDF80890FCF7C6FE3009103094
:1042A00004908DF81B002846782100220123CDE9D7
:1042B0000047CDF80890FCF7B7FE06F00F0003901A
:1042C0008DF81B002846782100220123CDE9004704
:1042D000CDF80890FCF7A8FE5FFA8BF045F6600277
:1042E0000101C0F60002515C02EB00168DF81B10B4
:1042F0002846782140220123CDE90047CDF80890D7
:10430000FCF792FE707896F802A096F8038096F873
:1043100004B08DF81B002846782140220123CDE906
:104320000047CDF80890FCF77FFE28467821402210
:1043300001238DF81BA0CDE90047CDF80890FCF7CC
:1043400073FE28467821402201238DF81B80CDE999
:104350000047CDF80890FCF767FE284678214022F8
:1043600001238DF81BB0CDE90047CDF80890FCF78C
:104370005BFE707978218DF81B00284640220123CE
:10438000CDE90047CDF80890FCF74EFEB0797821D2
:104390008DF81B00284640220123CDE90047CDF8C7
:1043A0000890FCF741FEF07978218DF81B00284633
:1043B00040220123CDE90047CDF80890FCF734FEF8
:1043C000059878214F388DF81B00284600220123DC
:1043D000CDE90047CDF80890FCF726FE0498782137
:1043E0008DF81B00284600220123CDE90047CDF8B7
:1043F0000890FCF719FE039878218DF81B002846D9
:1044000000220123CDE90047CDF80890FCF70CFE0F
:10441000307A78218DF81B00284640220123CDE90F
:104420000047CDF80890FCF7FFFD707A78218DF8F1
:104430001B00284640220123CDE90047CDF8089013
:10444000FCF7F2FDB07A78218DF81B002846402257
:104450000123CDE90047CDF80890FCF7E5FDF07A9F
:1044600078218DF81B00284640220123CDE9004722
:10447000CDF80890FCF7D8FD307B78218DF81B0033
:10448000284640220123CDE90047CDF80890FCF7EB
:10449000CBFD707B78218DF81B002846402201233C
:1044A000CDE90047CDF80890FCF7BEFDB07B782140
:1044B0008DF81B00284640220123CDE90047CDF8A6
:1044C0000890FCF7B1FDF07BCDE900478DF81B00AB
:1044D000D3E100BF40F23424A1F15000C2F2000445
:1044E0008DF81B004FF480784FF0010A0DF11B0985
:1044F0002046782100220123CDE9009ACDF80880DA
:10450000FCF792FD300910308DF81B002046782111
:1045100000220123CDE9009ACDF80880FCF784FD44
:1045200006F00F008DF81B002046782100220123A1
:10453000CDE9009ACDF80880FCF776FD5FFA8BF0A4
:1045400045F23E6100EB4000C0F6000111F810207A
:1045500001EB40068DF81B202046782140220123E4
:10456000CDE9009ACDF80880FCF75EFD7078B77849
:10457000F57896F804B08DF81B002046782140228B
:104580000123CDE9009ACDF80880FCF74DFD2046C7
:104590007821402201238DF81B70CDE9009ACDF8D7
:1045A0000880FCF741FD20467821402201238DF848
:1045B0001B50CDE9009ACDF80880FCF735FD204668
:1045C0007821402201238DF81BB0CDE9009ACDF867
:1045D0000880FCF729FD7079CDE9009A8DF81B0061
:1045E0002046782140220123CDF80880FCF71CFDED
:1045F00007B0BDE8F08F00BF40F23425C2F20005DD
:104600008DF81B004FF480794FF001080DF11B0766
:104610002846782100220123CDE90078CDF80890C2
:10462000FCF702FD3009103004908DF81B0028467D
:10463000782100220123CDE90078CDF80890FCF71D
:10464000F3FC06F00F0003908DF81B00284678213C
:1046500000220123CDE90078CDF80890FCF7E4FCB6
:104660005FFA8BF045F660020101C0F60002515C72
:1046700002EB0016C8438DF81B0028467821402223
:104680000123CDE90078CDF80890FCF7CDFC7078D7
:10469000B478C04396F803A096F804B08DF81B00D8
:1046A0002846782140220123CDE90078CDF80890F2
:1046B000FCF7BAFCE0438DF81B0028467821402225
:1046C0000123CDE90078CDF80890FCF7ADFC6FEA46
:1046D0000A008DF81B002846782140220123CDE9ED
:1046E0000078CDF80890FCF79FFC6FEA0B008DF87E
:1046F0001B002846782140220123CDE90078CDF81F
:104700000890FCF791FC70797821C0438DF81B006C
:10471000284640220123CDE90078CDF80890FCF727
:1047200083FCB0797821C0438DF81B0028464022D5
:104730000123CDE90078CDF80890FCF775FCF079FD
:104740007821C0438DF81B00284640220123CDE983
:104750000078CDF80890FCF767FC059878214F3871
:104760008DF81B00284600220123CDE90078CDF802
:104770000890FCF759FC049878218DF81B00284616
:1047800000220123CDE90078CDF80890FCF74CFC1D
:10479000039878218DF81B00284600220123CDE9DB
:1047A0000078CDF80890FCF73FFC307A7821C043C0
:1047B0008DF81B00284640220123CDE90078CDF872
:1047C0000890FCF731FC707A7821C0438DF81B000B
:1047D000284640220123CDE90078CDF80890FCF767
:1047E00023FCB07A7821C0438DF81B002846402274
:1047F0000123CDE90078CDF80890FCF715FCF07A9C
:104800007821C0438DF81B00284640220123CDE9C2
:104810000078CDF80890FCF707FC307B7821C04386
:104820008DF81B00284640220123CDE90078CDF801
:104830000890FCF7F9FB707B7821C0438DF81B00D2
:10484000284640220123CDE90078CDF80890FCF7F6
:10485000EBFBB07B7821C0438DF81B00284640223B
:104860000123CDE90078CDF80890FCF7DDFBF07B63
:10487000CDE90078C0438DF81B00284678214022FE
:104880000123CDF80890FCF7CFFB07B0BDE8F08F0F
:104890002DE9F04115461278002A08BFBDE8F081E5
:1048A00098460E4607460024F8B2F1B2D2B243460B
:1048B000FFF7D0FC0837F8B201347828E0B288BF9F
:1048C00002362A5C88BF0027002AEDD1BDE8F081BE
:1048D0007047000070470000F0B581B040F600441A
:1048E000C4F20104204602210122FCF7D5FA0F2070
:1048F000FBF75EFD204602210022FCF7CDFA00BF47
:1049000020460121FCF7C2FA0028F9D040F28007C6
:10491000C2F200070020C7E90A0000BF20460121BB
:10492000FCF7B4FA0128F9D0D7E90A0140F6D862B9
:10493000821A71F10002C7E90C0103D2AD2148438C
:10494000386000E0386800B200F094FD0021C4F245
:10495000C82100F0CDFC3E1D044663CE796000F016
:1049600065FC2946BD6000F061FC3146FE6000F048
:104970005DFC7969396100F059FCB969796100F031
:1049800055FCF969B96100F051FC396AF96100F030
:104990004DFC796A396200F049FC014620467C6290
:1049A00000F044FC0021C4F2201100F0A1FC01B091
:1049B000F0BD000080B500F0F3FA00F05FFBFFF7F8
:1049C00067FAFFF7F1FAFFF763FA04A2002000216B
:1049D0001023BDE88040FFF75BBF00BF57656C63E5
:1049E0006F6D6520746F207573650000FCF7FABB6E
:1049F0007047000040F28820C2F20000FDF7B2BB11
:104A000040F28820C2F20000FDF7ACBB40F28820E3
:104A1000C2F20000FDF7A6BB40F28820C2F20000FF
:104A2000FDF7A0BB40F26030C2F20000FDF79ABB78
:104A3000406A0021C185C184FDF76CBF406A0168EE
:104A40004A6990F84130212B2DD112F080022AD0F2
:104A50000021C184016851E8031F026821F0C001F0
:104A600042E80313DBB1016851E8031F026821F03B
:104A7000C00142E8031393B1016851E8031F0268C3
:104A800021F0C00142E803134BB1016851E8031F54
:104A9000026821F0C00142E80313002BDAD1202183
:104AA00080F841100168496990F84220222A40F0BC
:104AB0007D8011F0400179D00021C185016851E865
:104AC000031F026821F4907142E80313BBB301682D
:104AD00051E8031F026821F4907142E8031373B395
:104AE000016851E8031F026821F4907142E8031342
:104AF0002BB3016851E8031F026821F4907142E86A
:104B00000313002BDAD11AE0016851E8051F02688F
:104B100021F0010142E80513DBB1016851E8051FEE
:104B2000026821F0010142E8051393B1016851E8E0
:104B3000051F026821F0010142E805134BB101682D
:104B400051E8051F026821F0010142E80513002B1E
:104B5000DAD1016B012924D1016851E8031F0268F1
:104B600021F0100142E80313DBB1016851E8031F93
:104B7000026821F0100142E8031393B1016851E883
:104B8000031F026821F0100142E803134BB10168D2
:104B900051E8031F026821F0100142E80313002BC3
:104BA000DAD1202180F8421000210163416C41F0EC
:104BB00010014164FDF7AEBE0168406A09688906CC
:104BC00000F19F800021C185016851E8031F026840
:104BD00021F4807142E80313E3B1016851E8031F37
:104BE000026821F4807142E803139BB1016851E827
:104BF000031F026821F4807142E8031353B1016876
:104C000051E8031F026821F4807142E80313002B6E
:104C1000DAD100BF016851E8051F026821F00101E7
:104C200042E80513BBB3016851E8051F026821F093
:104C3000010142E8051373B3016851E8051F0268DA
:104C400021F0010142E805132BB3016851E8051F6B
:104C5000026821F0010142E80513002BDAD11AE0C5
:104C6000016851E8051F026821F0400142E8051380
:104C7000DBB1016851E8051F026821F0400142E8FC
:104C8000051393B1016851E8051F026821F0400146
:104C900042E805134BB1016851E8051F026821F095
:104CA000400142E80513002BDAD1202180F84210A0
:104CB000016B012925D100BF016851E8031F02687B
:104CC00021F0100142E80313DBB1016851E8031F32
:104CD000026821F0100142E8031393B1016851E822
:104CE000031F026821F0100142E803134BB1016871
:104CF00051E8031F026821F0100142E80313002B62
:104D0000DAD100214163016B012918BFFEF7BCBA5B
:104D1000818DFDF7EFBC0000406A01214163016B0A
:104D2000012918BFFEF7B2BA818D4908FDF7E2BC30
:104D30000168406A0968890648BFFEF707BB002181
:104D4000C18400BF016851E8051F026821F080019D
:104D500042E8051383B3016851E8051F026821F09A
:104D6000800142E805133BB3016851E8051F026862
:104D700021F0800142E80513F3B1016851E8051FF5
:104D8000026821F0800142E80513002BDAD113E01C
:104D9000016851E8031F026841F0400142E8031333
:104DA000002B08BF7047016851E8031F026841F0FB
:104DB000400142E8031393B1016851E8031F026800
:104DC00041F0400142E803134BB1016851E8031F71
:104DD000026841F0400142E80313002BD8D170472C
:104DE000406AFEF7B5BA000081B090F8421022295F
:104DF00021D183680246B3F5805F09D152F8281F9C
:104E000052F8183C002B63D003685B680AE000BFCF
:104E100052F8281F13B90369002BF5D003685B68AB
:104E200003F07F030B70116801311160C18D0139EE
:104E30000A04C18502D001B0704700BF0168CA688A
:104E400022F02002CA60CA6822F48072CA604A69ED
:104E500022F001024A61202180F8421000214163C2
:104E6000026B012A3CD10163016851E8031F02680B
:104E700021F0100142E80313DBB1016851E8031F80
:104E8000026821F0100142E8031393B1016851E870
:104E9000031F026821F0100142E803134BB10168BF
:104EA00051E8031F026821F0100142E80313002BB0
:104EB000DAD101680A68D20606D5002200920A6893
:104EC0000092496800910099818D01B0FDF712BCF4
:104ED000026852686FF35F2221F8022B8162A5E716
:104EE00001B0FEF7D1B9000070B540F2A830C2F2AF
:104EF0000000006840F208060068C2F20006C00622
:104F000040D540F2B804C2F200040120A07040F283
:104F1000A830C2F20000FDF7EFFB40F22410C2F20D
:104F20000000006804F10E0540686178C0F10800D7
:104F3000B1FA81F2520904F1160300292946606092
:104F400004BF19462B46627044F62062C6E900137E
:104F5000237853B1237843B1237833B12378002BDE
:104F60001CBF043A5FEA0243F2D10122227082B2EE
:104F700040F2A830C2F20000FEF78AF97068002102
:104F80004160016040F2A834C2F200042046FDF7FF
:104F9000C3FC716820460822BDE87040FEF7C4B823
:104FA00081B040F2A830C2F200000168CA6842F045
:104FB0001002CA6040F26812C2F20002126813685E
:104FC00043F002031360002200920A6800924968CD
:104FD00008220091009940F20801C2F200014968DC
:104FE00001B0FEF7A1B80000B0B540F2F030C2F257
:104FF0000000006840F210050068C2F20005C0061B
:105000002CD540F2D804C2F200040120607040F2B6
:10501000F030C2F20000FDF76FFB40F2AC10C2F2BC
:105020000000006840F2385340682178C0F5807075
:105030006060B1FA81F0420940F23840C2F20003E8
:10504000C2F200000029194604BF01461846C5E90E
:1050500000104FF480712270FBF7B6F840F2F03484
:10506000C2F200042046FDF757FC696820464FF461
:105070008072BDE8B040FEF757B8000081B040F242
:10508000F030C2F200000168CA6842F01002CA6043
:1050900040F2F012C2F200021268136843F00203F9
:1050A0001360002200920A68009249684FF48072EF
:1050B0000091009940F21001C2F20001496801B06C
:1050C000FEF732B8FEE70000B0B540F60045C4F286
:1050D00001050446002828464FF400510AD4012255
:1050E000FBF7DAFE28464FF480510022FBF7D4FE8E
:1050F0000AE000BF0022FBF7CFFE28464FF48051A4
:105100000122FBF7C9FE644240F28820C2F200008F
:1051100000684463B0BD0000B0B540F60045C4F27D
:1051200001050446002828464FF400410AD4012214
:10513000FBF7B2FE28464FF480410022FBF7ACFE9D
:105140000AE000BF0022FBF7A7FE28464FF480418B
:105150000122FBF7A1FE644240F28820C2F2000067
:1051600000680464B0BD000094B0FCF749F8002466
:105170000120CDE90F44CDE90D440A900E904FF483
:10518000E0104FF48031022513900AA80494CDE971
:105190000244CDE90B14CDE91151FCF769FA28B1AD
:1051A000EFF3108072B600BFFEE700BF0F20CDE91D
:1051B00005054FF48060CDE9080405A80221079495
:1051C000FCF74EF920B1EFF3108072B6FEE700BF96
:1051D000022001904FF40040039001A8FCF7BAF8B8
:1051E00020B1EFF3108072B6FEE700BFFEF790FB30
:1051F000FEF75CFBFEF72EFBFEF71AFCFEF73AFC0F
:10520000FEF700FDFEF730FDFEF762FDFEF702FE41
:10521000FEF71EFEFFF7CEFBFEF760FE40F23C6499
:10522000C2F20004FFF758FB2060FBE790EA010F91
:1052300048BF81F0004100F18881421A3CBF801ACA
:1052400089184FEAD052A2EBD1534FF07F4C1CEAA1
:10525000410F18BF9CEA026F00F03B804FF0004CFA
:105260004CEA00204CEA012121FA03FC10EB0C0C63
:105270001ED202F1FF325FEA1C2040EBC25038BF61
:1052800070471CF07F0F4FEA400C18BFBCF17F4FF6
:1052900038BF7047C3F12003994008BF20F00100D8
:1052A000BCF17F4F38BF7047A0F1C04000F040B95B
:1052B0004FEA3C00000A40EBC25028BF1CF0FF0F31
:1052C0004FEA400CE6D018BFBCF17F4F38BF7047A3
:1052D000EAE79CEA026F05D010EA5C0F08BF00F015
:1052E0000040704710B500F0DDF800BF64FBBE3E23
:1052F0004FF47F0C1CEAD0121EBF1CEAD11392EAB5
:105300000C0F93EA0C0F00F0858090EA010F48BF64
:1053100042F4807240F4000C41F400002CF07F4114
:1053200020F07F4000B5A2EB030281420FF2081C7F
:10533000ACEB504E9EF800E0C0F100004FEA4E0E7C
:1053400000FB0EFC38BF49004FEA2C1C0CFB0EF38F
:105350004FEACE1E0EEB635E4FEA112C0EFB0CFCE7
:105360004FEAC1214FEA1C5300FB031102F5FA0278
:105370004FEA112C0EFB0CFC4FEA01314FEADC4CDA
:1053800000FB0C1142EB2242C14228BF09184CEB32
:1053900003335DF804EB10EB410143EBC250B2F56F
:1053A0007C0F38BF704729D512F0F00F1CBF00F1F9
:1053B000C04000F00040704700818283848586876A
:1053C00088898B8C8D8E8F919293959697999A9CC4
:1053D0009D9FA0A2A3A5A7A8AAACAEB0B2B3B5B733
:1053E000B9BCBEC0C2C5C7C9CCCED1D4D7D9DCDF09
:1053F000E2E6E9ECF0F3F7FAFE0000004FEA400CB9
:105400000CF1807CBCF17E4F28BF7047B0F1C040EA
:1054100000F08EB80CEAD11390EA010F48BF42F4B5
:105420008072624538BF634507D213F47F0F16D0F0
:1054300080EA010000F00040704710B500F032F83B
:10544000097EFC3E00F005B880EA010000F0004053
:10545000704780EA010000F0004000F069B812F4E3
:105460007F0F04BF0248704780EA010000F060B877
:105470000000C07F10F0004148BF4042B0FA80F306
:1054800010FA03F2C3F19D030BD051EAC35101EBB3
:105490001220530638BF704700F1010008BF20F00A
:1054A000010070470EF1020E2EF0030E5EF8044B61
:1054B000244204D44FEA4102B2F17F4F11D84FEA9F
:1054C0004003B3F17F4F0CD80ED14FEAD07C0CEBE8
:1054D0004C0C0CF1020CB2F17F4F08BF4CEBD17CAD
:1054E00004E04FF0080C01E04FEAD17C0CEB4C03D8
:1054F00024FA03F404F00704B4F1040C06D20EEB12
:10550000840CBDE810404CF0010C6047DFE80CF063
:10551000070802024FF00040A0F5800010BD0846C9
:10552000420018BFD2F1807288BF00F0004010BD69
:10553000FF2141EAD050C0057047000090EA010FFA
:1055400048BF81F000413FF578AE421A04D882F09E
:105550000042A0EB020011444FEAD052A2EBD1531B
:105560004FF07F4C1CEA410F18BF9CEA026F4AD0F3
:105570004FF0004C4CEA00204CEA012121FA03FCD8
:10558000B0EB0C0C0FD412F0FE0F36D05FEA4C00DB
:105590001DD5001240EBC25038BF70471CF03F0FC2
:1055A00018BF70470BE05FEA1C20A2F1010240EB3C
:1055B000C25038BF70471CF07F0F18BF7047C3F14F
:1055C0002003994014BF401E20F0010070474FEAAD
:1055D0001223800808BF7047B0FA80FCA2EB0C02CF
:1055E000CCF1280C60FA0CF093EA122F04BF00EB08
:1055F000C25070474FEAC3707047130A5FEADC106D
:1056000008BF7047F6E79CEA026F04D010EA5C0F0F
:1056100008BF0020704710B5FFF744FF40DFF63E9B
:1056200081F000407047000000000000000001020F
:10563000030406070809000000000102030400003B
:10564000000000000000002F00000000070007001D
:1056500000147F147F1400242A7F2A122313086465
:10566000620000364955225000000503000000008A
:105670001C224100000041221C000014083E0814B6
:105680000008083E0808000000A0600000080808A4
:105690000808000060600000002010080402003EBE
:1056A0005149453E0000427F400000426151494659
:1056B000002141454B31001814127F100027454549
:1056C0004539003C4A49493000017109050300365B
:1056D0004949493600064949291E0000363600006E
:1056E0000000563600000008142241000014141473
:1056F000141400004122140800020151090600326E
:105700004959513E007C1211127C007F49494936AB
:10571000003E41414122007F4141221C007F494916
:105720004941007F09090901003E4149497A007F4A
:105730000808087F0000417F4100002040413F01F0
:10574000007F08142241007F40404040007F020C4F
:10575000027F007F0408107F003E4141413E007FF0
:1057600009090906003E4151215E007F09192946B9
:105770000046494949310001017F0101003F404095
:10578000403F001F2040201F003F4038403F006343
:105790001408146300070870080700615149454365
:1057A00000007F41410000552A552A550000414123
:1057B0007F0000040201020400404040404000001D
:1057C00001020400002054545478007F48444438B7
:1057D00000384444442000384444487F003854543E
:1057E000541800087E0901020018A4A4A47C007FBC
:1057F000080404780000447D4000004080847D005F
:10580000007F102844000000417F4000007C041805
:105810000478007C0804047800384444443800FCD0
:10582000242424180018242418FC007C08040408EC
:1058300000485454542000043F444020003C404061
:10584000207C001C2040201C003C4030403C004498
:1058500028102844001CA0A0A07C004464544C44A0
:105860000000000000000000000000000000000038
:10587000000000F8000000000000003330000000CD
:1058800000100C06100C06000000000000000000D4
:1058900040C07840C0784000043F04043F04040046
:1058A000007088FC08300000001820FF211E000056
:1058B000F008F000E018000000211C031E211E006B
:1058C00000F00888700000001E21232419272110F1
:1058D00010160E0000000000000000000000000094
:1058E000000000E01804020000000007182040003B
:1058F00000020418E000000000402018070000002B
:10590000404080F0804040000202010F010202008E
:10591000000000F0000000000101011F0101010072
:10592000000000000000000080B0700000000000D7
:105930000000000000000000000101010101010160
:1059400000000000000000000030300000000000F7
:1059500000000000806018040060180601000000CC
:1059600000E010080810E000000F102020100F00C9
:10597000001010F8000000000020203F2020000050
:1059800000700808088870000030282422213000A8
:1059900000300888884830000018202020110E00B0
:1059A0000000C02010F8000000070424243F240059
:1059B00000F80888880808000019212020110E002E
:1059C00000E0108888180000000F112020110E0040
:1059D00000380808C83808000000003F0000000038
:1059E0000070880808887000001C222121221C00F9
:1059F00000E010080810E0000000312222110F0022
:105A0000000000C0C00000000000003030000000B6
:105A10000000008000000000000080600000000026
:105A2000000080402010080000010204081020003F
:105A3000404040404040400004040404040404008A
:105A4000000810204080000000201008040201001F
:105A5000007048080808F00000000030360100001F
:105A6000C030C828E810E0000718272423140B00D2
:105A70000000C038E0000000203C2302022738204C
:105A800008F8888888700000203F202020110E0030
:105A9000C030080808083800071820202010080027
:105AA00008F808080810E000203F202020100F0010
:105AB00008F88888E8081000203F202023201800DC
:105AC00008F88888E8081000203F20000300000044
:105AD000C03008080838000007182020221E0200E5
